{
  "contractName": "Casino",
  "abi": [
    {
      "inputs": [],
      "payable": false,
      "stateMutability": "nonpayable",
      "type": "constructor"
    },
    {
      "anonymous": false,
      "inputs": [
        {
          "indexed": false,
          "name": "",
          "type": "string"
        },
        {
          "indexed": false,
          "name": "",
          "type": "uint256"
        }
      ],
      "name": "evLogInt",
      "type": "event"
    },
    {
      "constant": false,
      "inputs": [
        {
          "name": "number",
          "type": "uint256"
        },
        {
          "name": "salt",
          "type": "uint256"
        }
      ],
      "name": "unsafeEntry",
      "outputs": [
        {
          "name": "",
          "type": "bool"
        }
      ],
      "payable": true,
      "stateMutability": "payable",
      "type": "function"
    },
    {
      "constant": true,
      "inputs": [
        {
          "name": "number",
          "type": "uint256"
        },
        {
          "name": "salt",
          "type": "uint256"
        }
      ],
      "name": "generateHash",
      "outputs": [
        {
          "name": "",
          "type": "uint256"
        }
      ],
      "payable": false,
      "stateMutability": "pure",
      "type": "function"
    },
    {
      "constant": false,
      "inputs": [
        {
          "name": "number",
          "type": "uint256"
        },
        {
          "name": "salt",
          "type": "uint256"
        }
      ],
      "name": "verifyTicket",
      "outputs": [
        {
          "name": "",
          "type": "bool"
        }
      ],
      "payable": false,
      "stateMutability": "nonpayable",
      "type": "function"
    },
    {
      "constant": false,
      "inputs": [],
      "name": "checkWinner",
      "outputs": [
        {
          "name": "",
          "type": "bool"
        }
      ],
      "payable": false,
      "stateMutability": "nonpayable",
      "type": "function"
    },
    {
      "constant": false,
      "inputs": [],
      "name": "claim",
      "outputs": [],
      "payable": false,
      "stateMutability": "nonpayable",
      "type": "function"
    }
  ],
  "bytecode": "0x6080604052601e6003556014600455601460055534801561001f57600080fd5b50426002819055506109e8806100366000396000f3fe608060405260043610610067576000357c01000000000000000000000000000000000000000000000000000000009004806303446b181461006c578063324a7d34146100c95780634e71d92d146101225780638404e45b14610139578063ad38867e14610189575b600080fd5b34801561007857600080fd5b506100af6004803603604081101561008f57600080fd5b8101908080359060200190929190803590602001909291905050506101b8565b604051808215151515815260200191505060405180910390f35b3480156100d557600080fd5b5061010c600480360360408110156100ec57600080fd5b81019080803590602001909291908035906020019092919050505061047c565b6040518082815260200191505060405180910390f35b34801561012e57600080fd5b5061013761052a565b005b61016f6004803603604081101561014f57600080fd5b81019080803590602001909291908035906020019092919050505061064b565b604051808215151515815260200191505060405180910390f35b34801561019557600080fd5b5061019e610667565b604051808215151515815260200191505060405180910390f35b60006003546002540142101515156101cf57600080fd5b7faa5cc02740856eb2f2cf6484c9b84c8a504c77969201a58f7d791426a9ca289e6002546040518080602001838152602001828103825260028152602001807f31290000000000000000000000000000000000000000000000000000000000008152506020019250505060405180910390a17faa5cc02740856eb2f2cf6484c9b84c8a504c77969201a58f7d791426a9ca289e600354600254016040518080602001838152602001828103825260028152602001807f32290000000000000000000000000000000000000000000000000000000000008152506020019250505060405180910390a16004546003546002540101421015156102cf57600080fd5b7faa5cc02740856eb2f2cf6484c9b84c8a504c77969201a58f7d791426a9ca289e60045460035460025401016040518080602001838152602001828103825260028152602001807f33290000000000000000000000000000000000000000000000000000000000008152506020019250505060405180910390a16000600760003373ffffffffffffffffffffffffffffffffffffffff1673ffffffffffffffffffffffffffffffffffffffff1681526020019081526020016000205411151561039757600080fd5b600760003373ffffffffffffffffffffffffffffffffffffffff1673ffffffffffffffffffffffffffffffffffffffff168152602001908152602001600020546103e1848461047c565b1415156103ed57600080fd5b3373ffffffffffffffffffffffffffffffffffffffff16826001541818600181905550600a3390806001815401808255809150509060018203906000526020600020016000909192909190916101000a81548173ffffffffffffffffffffffffffffffffffffffff021916908373ffffffffffffffffffffffffffffffffffffffff1602179055505092915050565b600082821115156104f5576040517f08c379a00000000000000000000000000000000000000000000000000000000081526004018080602001828103825260168152602001807f73616c74206c657373207468656e206e756d6265722e0000000000000000000081525060200191505060405180910390fd5b818301604051602001808281526020019150506040516020818303038152906040528051906020012060019004905092915050565b6000600860003373ffffffffffffffffffffffffffffffffffffffff1673ffffffffffffffffffffffffffffffffffffffff1681526020019081526020016000205411151561057857600080fd5b6000600860003373ffffffffffffffffffffffffffffffffffffffff1673ffffffffffffffffffffffffffffffffffffffff1681526020019081526020016000205490506000600860003373ffffffffffffffffffffffffffffffffffffffff1673ffffffffffffffffffffffffffffffffffffffff168152602001908152602001600020819055503373ffffffffffffffffffffffffffffffffffffffff166108fc829081150290604051600060405180830381858888f19350505050158015610647573d6000803e3d6000fd5b5050565b600061065f61065a848461047c565b6107a7565b905092915050565b60006004546003546002540101421015151561068257600080fd5b6005546004546003546002540101014210151561069e57600080fd5b6000600660009054906101000a900460ff16151561077257600a80805490506001548115156106c957fe5b068154811015156106d657fe5b9060005260206000200160009054906101000a900473ffffffffffffffffffffffffffffffffffffffff169050678ac7230489e80000600a8054905003600860008373ffffffffffffffffffffffffffffffffffffffff1673ffffffffffffffffffffffffffffffffffffffff168152602001908152602001600020819055506001600660006101000a81548160ff0219169083151502179055505b8073ffffffffffffffffffffffffffffffffffffffff163373ffffffffffffffffffffffffffffffffffffffff161491505090565b600060035460025401421015156107bd57600080fd5b7faa5cc02740856eb2f2cf6484c9b84c8a504c77969201a58f7d791426a9ca289e6002546040518080602001838152602001828103825260028152602001807f31290000000000000000000000000000000000000000000000000000000000008152506020019250505060405180910390a17faa5cc02740856eb2f2cf6484c9b84c8a504c77969201a58f7d791426a9ca289e600354600254016040518080602001838152602001828103825260028152602001807f32290000000000000000000000000000000000000000000000000000000000008152506020019250505060405180910390a1670de0b6b3a7640000341415156108bb57600080fd5b6000600760003373ffffffffffffffffffffffffffffffffffffffff1673ffffffffffffffffffffffffffffffffffffffff1681526020019081526020016000205414151561090957600080fd5b81600760003373ffffffffffffffffffffffffffffffffffffffff1673ffffffffffffffffffffffffffffffffffffffff1681526020019081526020016000208190555060093390806001815401808255809150509060018203906000526020600020016000909192909190916101000a81548173ffffffffffffffffffffffffffffffffffffffff021916908373ffffffffffffffffffffffffffffffffffffffff160217905550506001905091905056fea165627a7a72305820ce392b903208a42c0d1d5f50fe9864d983a97e5fd1be14b53c6f1db8687b1a010029",
  "source": "pragma solidity ^0.5.1;\r\n\r\ncontract Casino {\r\n    uint private prize;\r\n    uint private winnerSeed;\r\n\r\n    uint private start;\r\n    uint private buyPeriod = 30;\r\n    uint private verifyPeriod = 20;\r\n    uint private checkPeriod = 20;\r\n\r\n    bool private hasWinner;\r\n\r\n\r\n    mapping(address => uint) _tickets;\r\n    mapping(address => uint) _winners;\r\n\r\n    address[] _entries;\r\n    address[] _verified;\r\n\r\n    event evLogInt(string, uint);\r\n\r\n    constructor ()public {\r\n        start = now;\r\n    }\r\n\r\n    function unsafeEntry(uint number, uint salt) external payable returns(bool) {\r\n        return buyTicket(generateHash(number, salt));\r\n    }\r\n\r\n    function generateHash(uint number, uint salt) public pure returns (uint) {\r\n        require(salt > number, \"salt less then number.\");\r\n        return uint(keccak256(abi.encodePacked(number + salt)));\r\n    }\r\n\r\n\r\n    function buyTicket(uint hash) internal returns(bool) {\r\n        require(now < start+buyPeriod);\r\n\r\n        emit evLogInt(\"1)\", start);\r\n        emit evLogInt(\"2)\", start+buyPeriod);\r\n\r\n        require(msg.value == 1 ether);\r\n        require(_tickets[msg.sender] == 0);\r\n\r\n        _tickets[msg.sender] = hash;\r\n        _entries.push(msg.sender);\r\n        /* prize += msg.value; */\r\n        return true;\r\n    }\r\n\r\n    function verifyTicket(uint number, uint salt) external returns(bool) {\r\n        require(now >= start+buyPeriod);\r\n        emit evLogInt(\"1)\", start);\r\n        emit evLogInt(\"2)\", start+buyPeriod);\r\n\r\n        require(now < start+buyPeriod+verifyPeriod);\r\n        emit evLogInt(\"3)\", start+buyPeriod+verifyPeriod);\r\n\r\n        require(_tickets[msg.sender] > 0);\r\n        require(generateHash(number, salt) == _tickets[msg.sender]);\r\n\r\n        winnerSeed = winnerSeed ^ salt ^ uint(msg.sender);\r\n        _verified.push(msg.sender);\r\n    }\r\n\r\n\r\n    function checkWinner() external returns(bool) {\r\n        require(now >= start+buyPeriod+verifyPeriod);\r\n        require(now < start+buyPeriod+verifyPeriod+checkPeriod);\r\n\r\n        address winner;\r\n        if(!hasWinner) {\r\n            winner = _verified[winnerSeed % _verified.length];\r\n            _winners[winner] = _verified.length - 10 ether;\r\n            hasWinner = true;\r\n        }\r\n\r\n        return msg.sender == winner;\r\n    }\r\n\r\n\r\n    function claim() external {\r\n        require(_winners[msg.sender] > 0);\r\n\r\n        uint prizAmount = _winners[msg.sender];\r\n        _winners[msg.sender] = 0;\r\n        msg.sender.transfer(prizAmount);\r\n    }\r\n}\r\n",
  "sourcePath": "C:/project/Workspace/GitHub/solidity/random_number/contracts/Casino.sol",
  "compiler": {
    "name": "solc",
    "version": "0.5.4+commit.9549d8ff.Emscripten.clang"
  },
  "schemaVersion": "3.0.2",
  "updatedAt": "2019-04-09T10:02:21.169Z",
  "devdoc": {
    "methods": {}
  },
  "userdoc": {
    "methods": {}
  }
}